:100000000C9463000C948B000C948B000C948B006C
:100010000C948B000C948B000C948B000C948B0034
:100020000C948B000C948B000C948B000C948B0024
:100030000C948B000C948B000C948B000C948B0014
:100040000C94B4030C948B000C9424040C94FE03C5
:100050000C948B000C948B000C948B000C948B00F4
:100060000C948B000C948B000000000023002600F1
:10007000290000000008000201000003040700003E
:1000800000000000000000000000250028002B00F8
:1000900000000000240027002A00040404040404D3
:1000A0000404020202020202030303030303010227
:1000B00004081020408001020408102001020408F6
:1000C00010206704B80611241FBECFEFD8E0DEBFB2
:1000D000CDBF23E0AAE1B2E001C01D92A73EB20766
:1000E000E1F712E0A0E0B1E0E2E4F2E102C0059045
:1000F0000D92AA31B107D9F710E0C2E6D0E004C0F2
:100100002197FE010E941307C136D107C9F70E944B
:10011000AB050C9414090C940000CF93DF9390E08E
:10012000FC01E255FF4F249186569F4FFC018491BC
:100130008823C1F090E0880F991FFC01E057FF4F22
:10014000C591D491FC01EA57FF4FA591B4919FB797
:10015000F8943881822F809583238883EC91E22B59
:10016000EC939FBFDF91CF91089590E0FC01EE5892
:10017000FF4F2491FC01E255FF4F3491FC01E656FC
:10018000FF4FE491EE23C1F1222339F02330E9F04F
:1001900090F4213001F1223011F1F0E0EE0FFF1F59
:1001A000E859FF4FA591B491EC91E32381E090E0F1
:1001B00029F580E008952730A9F02830C9F02430CF
:1001C00061F7809180008F7D03C0809180008F77E0
:1001D00080938000E2CF84B58F7784BDDECF84B575
:1001E0008F7DFBCF8091B0008F778093B000D5CF0B
:1001F0008091B0008F7DF9CF80E090E008953FB707
:10020000F89480911F0290912002A0912102B09158
:10021000220226B5A89B05C02F3F19F00196A11D0B
:10022000B11D3FBFBA2FA92F982F8827BC01CD0140
:10023000620F711D811D911D42E0660F771F881F9F
:10024000991F4A95D1F70895AF92BF92CF92DF924E
:10025000EF92FF920F931F93CF93DF936C017B017B
:100260008B01040F151FEB015E01AE18BF08C0170C
:10027000D10759F06991D601ED91FC910190F0817F
:10028000E02DC6010995892B79F7C501DF91CF9142
:100290001F910F91FF90EF90DF90CF90BF90AF90A4
:1002A0000895FC01538D448D252F30E0842F90E07C
:1002B000821B930B541710F0CF9608950197089561
:1002C000FC01918D828D981761F0A28DAE0FBF2F2A
:1002D000B11D5D968C91928D9F5F9F73928F90E080
:1002E00008958FEF9FEF0895FC01918D828D9817EF
:1002F00031F0828DE80FF11D858D90E008958FEF2C
:100300009FEF0895FC01918D228D892F90E0805CF4
:100310009F4F821B91098F739927089589E292E07C
:100320000E94820121E0892B09F420E0822F0895A8
:1003300080E090E0892B29F00E948E0181110C94BD
:1003400000000895FC01A48DA80FB92FB11DA35A78
:10035000BF4F2C91848D90E001968F739927848FE5
:10036000A689B7892C93A089B1898C918370806408
:100370008C93938D848D981306C00288F389E02DA9
:1003800080818F7D80830895EF92FF920F931F935A
:10039000CF93DF93EC0181E0888F9B8D8C8D981338
:1003A0001AC0E889F989808185FF15C09FB7F89444
:1003B000EE89FF896083E889F98980818370806490
:1003C00080839FBF81E090E0DF91CF911F910F91DB
:1003D000FF90EF900895F62E0B8D10E00F5F1F4FEA
:1003E0000F731127E02E8C8D8E110CC00FB607FCF9
:1003F000FACFE889F989808185FFF5CFCE010E9487
:10040000A201F1CFEB8DEC0FFD2FF11DE35AFF4F51
:10041000F0829FB7F8940B8FEA89FB898081806214
:10042000CFCFCF93DF93EC01888D8823B9F0AA89D1
:10043000BB89E889F9898C9185FD03C0808186FD9F
:100440000DC00FB607FCF7CF8C9185FFF2CF8081EE
:1004500085FFEDCFCE010E94A201E9CFDF91CF91C0
:10046000089542E050E06CE371E089E292E00C9480
:100470002401CF93DF93EC01A881B981EB01E881DE
:10048000F9811097F1F03097B1F4EC018C819D81E6
:10049000892BC9F08C9190E00BC0DB0114968D91F3
:1004A0009C91892B81F0808190E0919581959109B3
:1004B000DF91CF910895BF01CD01DF91CF910C94D1
:1004C0000409309751F790E080E0F2CFFC01808181
:1004D0009181009711F00C94B50708950F931F9325
:1004E000CF93DF93EC0188819981009759F02A819D
:1004F0003B812617370730F081E0DF91CF911F91C4
:100500000F9108958B016F5F7F4F0E943E08009707
:1005100059F0998388831B830A832C813D81232B87
:1005200059F7FC011082E8CF80E0E7CFEF92FF920D
:100530000F931F93CF93DF93EC017B018A01BA01E4
:100540000E946E0228813981811114C02115310564
:1005500019F0C9010E94B507198218821D821C82F8
:100560001B821A82CE01DF91CF911F910F91FF90D4
:10057000EF9008951D830C83B701C9010E940D09F6
:10058000F1CF50E040E06EE371E08EED92E00C942C
:1005900096029F92AF92BF92CF92DF92EF92FF921C
:1005A0000F931F93CF93DF9300D0CDB7DEB78C01AD
:1005B0000E94C10282EDE82E82E0F82E93E2A92E7D
:1005C00092E0B92E99249394F7018081F2E0EF0E26
:1005D000F11C0E94B500892B11F4F5019082F50100
:1005E00081915F01811151C080E389831A82C0909B
:1005F000E202D090E302FFEFCF1ADF0AB6018EEDE0
:1006000092E00E946E02882399F02091DE023091E0
:10061000DF028091E2029091E302BE016F5F7F4FA3
:10062000820F931F0E940D09D092E302C092E20252
:100630008EEDE81682E0F80639F6F8011182108294
:100640001382128215821482F2E00E3D1F0771F0B0
:100650006091DE027091DF026115710539F0409101
:10066000E2025091E302C8010E949602C8010F9075
:100670000F90DF91CF911F910F91FF90EF90DF903E
:10068000CF90BF90AF909F90089581E3AECFCF926F
:10069000DF92FF920F931F93CF93DF9300D000D090
:1006A00000D0CDB7DEB786ECC82E82E0D82E10E0A1
:1006B00000E0CE0101960E94C9022D813E81F60123
:1006C00082A193A12817390759F4B601625E7F4FC2
:1006D000CE0101960E943902FF24F394892B09F080
:1006E000F12CCE0101960E946602FF2091F0F801E4
:1006F000EA54FC4F808126960FB6F894DEBF0FBEF9
:10070000CDBFDF91CF911F910F91FF90DF90CF90E0
:100710000895CE0101960E94C9022D813E818091EB
:10072000CA029091CB022817390759F466EC72E09F
:10073000CE0101960E943902FF24F394892B09F01F
:10074000F12CCE0101960E946602F1100BC00F5FE2
:100750001F4FF6E0CF0ED11C0A31110509F0A9CFC9
:100760008AE2C9CF84E2C7CF1F920F920FB60F92D1
:1007700011242F933F938F939F93AF93BF938091B7
:100780001B0290911C02A0911D02B0911E0230919B
:100790001A0223E0230F2D3758F50196A11DB11D34
:1007A00020931A0280931B0290931C02A0931D02B7
:1007B000B0931E0280911F0290912002A09121020D
:1007C000B09122020196A11DB11D80931F0290934A
:1007D0002002A0932102B0932202BF91AF919F917A
:1007E0008F913F912F910F900FBE0F901F901895F2
:1007F00026E8230F0296A11DB11DD2CF1F920F92A2
:100800000FB60F9211242F933F934F935F936F93E3
:100810007F938F939F93AF93BF93EF93FF9389E25F
:1008200092E00E94A201FF91EF91BF91AF919F9141
:100830008F917F916F915F914F913F912F910F9089
:100840000FBE0F901F9018951F920F920FB60F9228
:1008500011242F938F939F93EF93FF93E09139028D
:10086000F0913A028081E0913F02F091400282FDD6
:100870001BC09081809142028F5F8F732091430251
:10088000821741F0E0914202F0E0E75DFD4F958F65
:1008900080934202FF91EF919F918F912F910F9042
:1008A0000FBE0F901F9018958081F4CFFC0111822C
:1008B00010821382128215821482FB0101900020A3
:1008C000E9F73197AF01461B570B0C949602E9E20A
:1008D000F2E01382128288EE93E0A0E0B0E084831D
:1008E0009583A683B7838EE291E09183808385EC24
:1008F00090E09587848784EC90E09787868780ECEA
:1009000090E0918B808B81EC90E0938B828B82ECDA
:1009100090E0958B848B86EC90E0978B868B118E84
:10092000128E138E148E6FE371E086EC92E00E94BB
:10093000560466E471E08CEC92E00E9456046EE38B
:1009400071E08EED92E00E9456046DE471E084EE59
:1009500092E00E94560464E571E08AEE92E00E9403
:1009600056046BE571E080EF92E00E94560462E667
:1009700071E086EF92E00E94560469E671E08CEF28
:1009800092E00E94560460E771E082E093E00E94EA
:10099000560467E771E088E093E00E9456046EE732
:1009A00071E08EE093E00E94560465E871E084E116
:1009B00093E00E9456046CE871E08AE193E00E94A3
:1009C000560463E971E080E293E00E9456046AE90C
:1009D00071E086E293E00E94560461EA71E08CE2E5
:1009E00093E00E94560468EA71E082E393E00E947B
:1009F00056046FEA71E088E393E00E94560466EBC8
:100A000071E08EE393E00E9456046DEB71E084E4A4
:100A100093E00E94560464EC71E08AE493E00E9443
:100A200056046BEC71E080E593E00E94560462EDA1
:100A300071E086E593E00E94560469ED71E08CE573
:100A400093E00E94560460EE71E082E693E00E941B
:100A5000560467EE71E088E693E00E9456046EEE5D
:100A600071E08EE693E00E94560465EF71E084E742
:100A700093E00E9456046CEF71E08AE793E00E94D5
:100A800056046EE371E080E893E00E9456046EE342
:100A900071E086E893E00E9456046EE371E08CE812
:100AA00093E00E9456046EE371E082E993E00E94B5
:100AB00056046EE371E088E993E00E9456046EE309
:100AC00071E08EE993E00E9456046EE371E084EADF
:100AD00093E00E9456046EE371E08AEA93E00E947C
:100AE00056046EE371E080EB93E00E9456048AE1C5
:100AF000E6E0F1E0A6EBB3E001900D928A95E1F714
:100B00008AE0E0E2F1E0A0EDB3E001900D928A9579
:100B1000E1F7EAEDF3E089E0DF011D928A95E9F75C
:100B2000E6ECF2E084E090E09587848785E090E051
:100B30009787868786E090E0918B808B87E090E0B6
:100B4000938B828B88E090E0958B848B89E090E09A
:100B5000978B868B0895CF93DF9300D000D000D081
:100B6000CDB7DEB7789484B5826084BD84B58160EA
:100B700084BD85B5826085BD85B5816085BD809168
:100B80006E00816080936E001092810080918100E0
:100B900082608093810080918100816080938100D8
:100BA000809180008160809380008091B10084609A
:100BB0008093B1008091B00081608093B0008091FB
:100BC0007A00846080937A0080917A0082608093BA
:100BD0007A0080917A00816080937A0080917A0017
:100BE000806880937A001092C10083E00E948D009B
:100BF00082E00E948D00E0913902F0913A0282E099
:100C00008083E0913502F09136021082E091370244
:100C1000F091380280E1808310924102E0913D0220
:100C2000F0913E0286E08083E0913B02F0913C022D
:100C3000808180618083E0913B02F0913C02808161
:100C400088608083E0913B02F0913C028081806863
:100C50008083E0913B02F0913C0280818F7D808314
:100C600002ED12E09EEDE92E92E0F92EF80180816E
:100C70000E5F1F4F0E948D00E016F106B9F700E0ED
:100C800010E0CE0101960E94C902CE0101960E9499
:100C9000660282E00E94B500892BE1F40E944703BE
:100CA000803309F45AC00E944703682F89E292E01A
:100CB0000E94C4010E94C1021092230210922402D9
:100CC00010922502109226021092270210922802FA
:100CD0000E94310283E00E94B500892B71F40E94CA
:100CE000C102109223021092240210922502109247
:100CF000260210922702109228020E94FF006B0128
:100D00007C0184E6882E912CA12CB12C0E94FF003E
:100D10006C197D098E099F09683E73408105910514
:100D2000A8F3F1E08F1A9108A108B10828EEC20ECD
:100D300023E0D21EE11CF11C81149104A104B10432
:100D400029F70115110509F49CCF0E948E01882313
:100D500009F497CF0E94000094CF45E150E063E092
:100D600072E089E292E00E9424010E943102A2CF47
:100D7000CF93DF93C6EBD3E02697CE010E946602A5
:100D800083E0C038D807C1F7C0E8D3E02697CE018A
:100D90000E94660282E0C43ED807C1F78EED92E061
:100DA0000E9466028CEC92E00E94660286EC92E061
:100DB000DF91CF910C9466022F923F924F925F92F7
:100DC0006F927F928F929F92AF92BF92CF92DF925B
:100DD000EF92FF920F931F93CF93DF93CDB7DEB7C0
:100DE000CA1BDB0B0FB6F894DEBF0FBECDBF099454
:100DF0002A88398848885F846E847D848C849B84AB
:100E0000AA84B984C884DF80EE80FD800C811B81B8
:100E1000AA81B981CE0FD11D0FB6F894DEBF0FBEE7
:100E2000CDBFED010895EE0FFF1F0590F491E02D69
:100E300009940F931F93CF93DF938230910510F4A1
:100E400082E090E0E091E503F091E60330E020E0FD
:100E5000B0E0A0E0309799F42115310509F44AC0BB
:100E6000281B390B24303105D8F58A819B81611507
:100E7000710589F1FB0193838283FE0111C04081DA
:100E800051810281138148175907E0F0481759072B
:100E900099F4109761F012960C93129713961C9385
:100EA0003296CF01DF91CF911F910F91089500935A
:100EB000E5031093E603F4CF2115310551F04217F5
:100EC000530738F0A901DB019A01BD01DF01F801E8
:100ED000C1CFEF01F9CF9093E6038093E503CDCF27
:100EE000FE01E20FF31F8193919322503109398360
:100EF0002883D7CF2091E3033091E403232B41F4DF
:100F000020910201309103013093E4032093E30325
:100F100020910001309101012115310541F42DB7D7
:100F20003EB74091040150910501241B350BE0911F
:100F3000E303F091E403E217F307A0F42E1B3F0B49
:100F40002817390778F0AC014E5F5F4F241735073B
:100F500048F04E0F5F1F5093E4034093E3038193E7
:100F600091939FCFF0E0E0E09CCFCF93DF93009789
:100F7000E9F0FC01329713821282A091E503B0914F
:100F8000E603ED0130E020E01097A1F420813181EB
:100F9000820F931F2091E3033091E4032817390750
:100FA00009F061C0F093E403E093E303DF91CF9194
:100FB0000895EA01CE17DF07E8F54A815B819E01BB
:100FC00041155105B1F7E901FB83EA834991599134
:100FD000C40FD51FEC17FD0761F480819181029643
:100FE000840F951FE90199838883828193819B8374
:100FF0008A83F0E0E0E012968D919C911397009720
:10100000B9F52D913C911197CD010296820F931F56
:101010002091E3033091E4032817390739F630971C
:1010200051F51092E6031092E503B093E403A09308
:10103000E303BCCFD383C28340815181840F951FCA
:10104000C817D90761F44E5F5F4F88819981480FB7
:10105000591F518340838A819B8193838283211509
:10106000310509F0B0CFF093E603E093E5039ECF9E
:10107000FD01DC01C0CF13821282D7CFB0E0A0E027
:10108000E4E4F8E00C94DE068C01009751F4CB0107
:101090000E9419078C01C801CDB7DEB7E0E10C94BE
:1010A000FA06FC01E60FF71F9C0122503109E217F6
:1010B000F30708F49DC0D901CD91DC911197C617B3
:1010C000D70798F0C530D10530F3CE0104978617C5
:1010D000970708F3C61BD70B2297C193D1936D9343
:1010E0007C93CF010E94B507D6CF5B01AC1ABD0A35
:1010F0004C018C0E9D1EA091E503B091E603512C8E
:10110000412CF12CE12C109731F58091E303909163
:10111000E4038815990509F05CC04616570608F0E7
:1011200058C08091000190910101009741F48DB762
:101130009EB74091040150910501841B950BE8175F
:10114000F90708F055C0F093E403E093E303F901D5
:1011500071836083A0CF8D919C91119712966C90B2
:10116000129713967C901397A815B90559F56C0141
:1011700042E0C40ED11CCA14DB0420F1AC014A19B0
:101180005B09DA011296159780F0628273825183AF
:101190004083D9016D937C93E114F10471F0D70180
:1011A0001396FC93EE93129776CF22968C0F9D1F89
:1011B000F90191838083F301EFCFF093E603E0938D
:1011C000E50369CF4816590608F42C017D01D301C7
:1011D0009ACFCB010E9419077C01009749F0AE011C
:1011E000B8010E94FB08C8010E94B507870153CFD0
:1011F00010E000E050CFFB01DC0102C001900D9235
:1012000041505040D8F70895FB01DC018D910190C9
:1012100080190110D9F3990B0895FB01DC010190AD
:101220000D920020E1F7089510E0C2E6D0E004C07E
:10123000FE010E9413072196C336D107C9F7F8941F
:02124000FFCFDE
:101242000000E70380004142434445464748494A7B
:101252004B4C4D4E4F505152535455565758797A24
:101262003132333435363738393000000000C401AA
:101272002401510111028201600174010D0A003042
:1012820030313131310030313030303000313030B6
:1012920030303000313130303030003130303130A8
:1012A20030003130303131300031303030313000C7
:1012B2003131303130300031313031313000313183
:1012C2003030313000303130313030003031303177
:1012D2003130003130313030300031313130303066
:1012E2000031303131303000313031313130003184
:1012F2003031303130003131313130300031313143
:101302003131300031313130313000303131313032
:101312003000303131313130003130313030310054
:101322003131313030310030313031313100313012
:101332003131303100313031313131003130313001
:10134200313100636F646520627261696C65206E81
:0A1352006F7420666F756E64000072
:00000001FF
